S01000005344505F323031362E7372656305
S1130000003000205D420000ED4F0000F94F000079
S1130010F94F0000F94F0000F94F0000F94F0000BC
S1130020F94F0000F94F0000F94F0000F94F0000AC
S1130030F94F0000F94F0000F94F0000F94F00009C
S1130040F94F0000F94F0000F94F0000F94F00008C
S1130050F94F0000F94F0000F94F0000F94F00007C
S1130060F94F0000F94F0000F94F0000F94F00006C
S1130070D95A0000F94F0000F94F0000C9470000A9
S1130080F94F0000F94F0000F94F0000F94F00004C
S1130090F94F0000F94F0000B15C0000F94F000077
S11300A0F94F0000F94F0000F94F0000F94F00002C
S11300B0F94F0000F94F0000F94F0000F94F00001C
S1130400FFFFFFFFFFFFFFFFFFFFFFFF7EFFFFFF79
S113041010B5064C2378002B07D1054B002B02D0D6
S1130420044800E000BF0123237010BD60F0FF1FEB
S113043000000000C862000008B5084B002B03D080
S11304400748084900E000BF07480368002B03D0B1
S1130450064B002B00D0984708BDC04600000000A2
S1130460C862000064F0FF1F60F0FF1F000000007E
S1130470164B002B00D1144B9D46402292029A1A2F
S1130480924600218B460F461348144A121A05F06F
S11304907BFE0F4B002B00D098470E4B002B00D057
S11304A098470020002104000D000D48002802D0C8
S11304B00C4800E000BF05F041FE2000290003F0D5
S11304C027FB05F025FEC046000008000030002090
S11304D0000000000000000060F0FF1F68F3FF1F31
S11304E00000000000000000002934D00123002295
S11304F010B488422CD301242407A14204D281429F
S113050002D209011B01F8E7E400A14204D28142AE
S113051002D249005B00F8E7884201D3401A1A432B
S11305204C08A04202D3001B5C0822438C08A04262
S113053002D3001B9C082243CC08A04202D3001B18
S1130540DC082243002803D01B0901D00909E3E792
S1130550101C10BC7047002801D00020C04307B411
S1130560024802A14018029003BDC046D900000011
S11305700029F0D003B5FFF7B9FF0EBC4243891A36
S11305801847C046002941D010B4041C4C40A4466E
S113059001230022002900D54942002800D5404209
S11305A088422CD301242407A14204D2814202D2DE
S11305B009011B01F8E7E400A14204D2814202D2FE
S11305C049005B00F8E7884201D3401A1A434C08FB
S11305D0A04202D3001B5C0822438C08A04202D331
S11305E0001B9C082243CC08A04202D3001BDC0859
S11305F02243002803D01B0901D00909E3E7101C9A
S11306006446002C00D5404210BC7047002806D038
S113061003DB0020C043400801E08020000607B44B
S1130620024802A14018029003BDC0461900000010
S11306300029EBD003B5FFF7A7FF0EBC4243891A8C
S11306401847C0467047C0468446101C62468C4614
S1130650191C634600E0C0461FB501F04FFE002898
S113066001D40021C8421FBD10B501F07FFD4042F6
S1130670013010BD10B501F041FE002801DB00205F
S113068010BD012010BDC04610B501F037FE002892
S113069001DD002010BD012010BDC04610B501F0E1
S11306A0AFFD002801DC002010BD012010BDC046B4
S11306B010B501F0A5FD002801DA002010BD0120CD
S11306C010BDC0468446081C6146FFE71FB500F014
S11306D04FFB002801D40021C8421FBD10B500F013
S11306E0D5FA4042013010BD10B500F041FB00289E
S11306F001DB002010BD012010BDC04610B500F084
S113070037FB002801DD002010BD012010BDC046CC
S113071010B500F0E5FA002801DC002010BD01202E
S113072010BDC04610B500F0DBFA002801DA002045
S113073010BD012010BDC0469E2110B5C905041C82
S1130740FFF7F0FF002803D1201C00F0FDFD10BDD1
S11307509E21C905201C00F081FC00F0F5FD8023DA
S11307601B06C018F3E7C046F8B543024400C50FA2
S11307704E024800240E2A1C9B09000EC90FB6091C
S11307808D425BD0221A002A00DC89E000281DD1AA
S1130790002E00D075E0580704D00F221A40042A16
S11307A000D004338021C90419402A1C00293AD0FE
S11307B00134FF2C00D17FE09B015B0A5B02E4B2B1
S11307C0E405580AD20720431043F8BDFF2CE2D0B9
S11307D08021C9040E431B2A00DD2DE1311C202099
S11307E0D140821A9640721E96410E439B1B5801BB
S11307F0D1D59B019F09381C02F012FD421F97407E
S113080094425BDC141B1F231B1B3A1C9F40611C7E
S11308103B1CCA405F1EBB4113430024BBE7131EAD
S1130820B9D100230022DB08FF2C04D1002B43D0D4
S11308308020C00303435B025B0ABFE7211A00293F
S113084040DD002823D0FF2CA5D08020C00406431F
S11308501B2900DDEEE0301C2027C840791A8E40A9
S1130860711E8E4106439B19590100D493E701344C
S1130870FF2C55D0714901221A400B405B081343E9
S113088089E7013A002AB1D0FF2CA4D183E7002ED6
S113089000D180E701390029E5D0FF2CD8D17AE7CF
S11308A0002A1BD1621CD2B2012A4BDD9F1B7A01A4
S11308B023D5F71A0D1C9EE700237FE75F4BA41A8C
S11308C03B4068E7002946D1611CC8B2012829DDF4
S11308D0FF2924D0F3185B080C1C5CE7002C13D010
S11308E0FF2818D08024E404524223431B2A4DDD00
S11308F00123F31A041C0D1C79E7002F00D07AE7BA
S11309000023002200248EE7002B3BD0D243002A90
S1130910EFD0FF28EAD1331CFF240D1C3BE7FF2452
S1130920002380E7002C5CD1002B00D180E0002E56
S113093000D130E79B19580100D42CE73F4A012429
S1130940134028E7002C15D1002B40D1002E63D092
S1130950331C0D1C1FE7002C21D1002B54D0C9439C
S1130960002904D0FF284CD01B2958DD01239B19F2
S1130970041C79E7002B19D1002E48D0331C0D1C20
S1130980FF2408E7331C041C0D1C04E71C1C202551
S1130990D440AA1A93405A1E93412343A9E7FF283F
S11309A02FD08024E40449422343DDE7FF24002EB2
S11309B000D1F0E68022DB08D203134204D0F6080B
S11309C0164201D1331C0D1CDB00FF24E3E6002E8C
S11309D000D1E0E69A1B500100D420E7F31A0D1C65
S11309E0D9E6002B0DD0FF24002E00D1D3E68022BF
S11309F0DB08D2031342E7D0F6081642E4D1331CD5
S1130A00E2E7331CFF24C6E6331C041CC3E6802340
S1130A1000229B04FF2406E7231C002203E71C1C7E
S1130A202027CC40791A8B40591E8B4123439EE7E3
S1130A30331CB0E6012616E70126D7E6FFFFFFFBCD
S1130A40F0B55F4656464D464446F0B4460245006E
S1130A50C00F85B00F1C760A2D0E804641D0FF2DA5
S1130A6026D08024240400212643F6007F3D8946B5
S1130A708B46F90F7C027800640A000E00918A46C6
S1130A803CD0FF2834D080231B041C430023E40003
S1130A907F380193009F4346019A7B4049469C4618
S1130AA011430F2900D971E0764F89007F58BF4662
S1130AB0002E3ED10822022391469B46D9E75A468E
S1130AC0341CC24601920199022937D0032900D16E
S1130AD0CFE0012900D0ABE053460B4000220026B2
S1130AE032E0002E19D10421012289469346C0E741
S1130AF0221C531E9A4102320192CBE7012701972F
S1130B00002CC7D0201C02F08BFB431F9C40762393
S1130B105B420021181A0191BCE7301C02F080FBF3
S1130B207625431F9E406D4200232D1A99469B460D
S1130B309FE70C23032199468B469AE7D446012369
S1130B4067463B40FF2200267602D205700ADB0787
S1130B501043184305B03CBC90469946A246AB46A8
S1130B60F0BD80260023F603FF22EDE700220026D5
S1130B70EAE78020C00306423BD0044239D1061C78
S1130B8026437602760A009BFF22DDE7281A0390AB
S1130B9076016401A64239D3361B1A2201230120AF
S1130BA0311C5B007600002901DBB44201D8361BFE
S1130BB00343013A002AF3DC741EA641341C1C438F
S1130BC0039A7F32002A27DD630704D00F232340D2
S1130BD0042B00D00434270103D52B4B039A1C406B
S1130BE08032FE2A0BDD012361460B40FF220026E2
S1130BF0AAE706437602760A4346FF22A4E7A40145
S1130C0001236746660AD2B23B409DE7039F1B223D
S1130C10013F03970023C2E77E23039F5B42DB1B54
S1130C201B2B07DD012361460B40002200268BE7C6
S1130C30D446C5E7221CDA40039B9E339C40231C08
S1130C405C1EA34113435A0704D00F221A40042AFE
S1130C5000D004335F0105D5012361460B40012216
S1130C60002671E79E01624601231340760A0022A2
S1130C706AE78026F60326437602760A5346FF2265
S1130C8062E7C0469C610000FFFFFFF74A0243028F
S1130C9070B55C0A550A43004A001B0EC60F120EBB
S1130CA0C90FFF2B05D0FF2A08D0012093420BD097
S1130CB070BD0120002CFBD1FF2AF6D10120002DAC
S1130CC0F6D101209342F3D1AC42F1D18E4205D04A
S1130CD0002BEDD1201C441EA041E9E70020E7E7EA
S1130CE04A024302F0B55C0A550A43004A001B0E4F
S1130CF0C60F120EC90FFF2B31D0FF2A34D0002BA0
S1130D0016D1604260418446002A14D0002820D1C4
S1130D108E4217D1934215DC04DBAC4212D800207A
S1130D20AC4212D2704270414042012318430CE09D
S1130D30002AEDD194466F426F416046002805D1E8
S1130D40002FE5D0704201231843F0BD0020002F8E
S1130D50FBD148424841404201231843F5E7002CA7
S1130D60CBD002204042F0E7002DC8D0F9E7C046BE
S1130D704A024302F0B55C0A550A43004A001B0EBE
S1130D80C60F120EC90FFF2B27D0FF2A29D0002B24
S1130D9010D0002A15D194466F426F416046002856
S1130DA015D00020002F04D148424841404201237D
S1130DB01843F0BD604260418446002AECD000280C
S1130DC0F2D18E4211D0704201231843F1E7002F73
S1130DD0F7D0704201231843EBE70220002CE8D13E
S1130DE0D3E70220002DE4D1D1E79342EBDC04DB0E
S1130DF0AC42E8D80020AC42DBD2704270414042A1
S1130E0001231843D5E7C046F0B55F4656464D4624
S1130E104446F0B44402460083B00F1C640A360E04
S1130E20C50F002E41D0FF2E22D080231B040020AA
S1130E301C43E4007F3E82468046391C4B007F02FF
S1130E40C90F7F0A1B0E8B463BD0FF2B34D0802268
S1130E5012041743FF007F3B00215A466A40019267
S1130E6052460A430F2A63D87A489200825897461A
S1130E70002C3FD10822022392469846DDE70195D3
S1130E80404602282AD1019A01251540FF23002457
S1130E906402DB05600AED071843284303B03CBC39
S1130EA090469946A246AB46F0BD002C27D10420BB
S1130EB0012282469046C0E7391C4A1E9141023104
S1130EC0CBE70121002FC8D0381C02F0A9F9431F39
S1130ED09F4076235B421B1A0021BEE7032800D102
S1130EE0AEE001284FD1019842461040C5B200231C
S1130EF00024CDE70C2303209A4680469DE7201C5E
S1130F0002F08EF97626431F9C4076420023361A5F
S1130F109A46984691E780240025E403FF23B7E727
S1130F205B463C1C01938846AAE73C1C8846A7E71D
S1130F30250C24043A0C240C3F04F6183F0C211C05
S1130F40231C794353436F435543FB180A0C9B18E6
S1130F50B1469F4202D980225202AD1809041A04F4
S1130F60090C521894011B0C611E8C41920EED1851
S1130F701443AD012C43230105D50122630801204C
S1130F80144081441C434B467F33002B2DDD600706
S1130F9004D00F222240042A00D00434220103D5B5
S1130FA02D4B1C404B468033FE2B17DD019B012546
S1130FB01D400024FF236BE78020C003044208D0B7
S1130FC0074206D1041C3C436402640A5D46FF23C5
S1130FD05EE704436402640AFF2359E70198A4010D
S1130FE00125640ADBB2054052E77E235B424A4690
S1130FF09B1A1B2B05DD019B01251D4000240023AA
S113100046E7221CDA404B469E339C40231C5C1E60
S1131010A3411343580704D00F221A40042A00D0D6
S113102004335A0105D5019B01251D4000240123E9
S11310302EE701989C010125640A0540002327E757
S11310408027FF03019B3C43640201251D40640A81
S1131050FF231DE7DC610000FFFFFFF7F8B5C20FB7
S1131060430244004D024800240E161C9B09000E46
S1131070C90FAD09FF2800D183E0012779408A42D6
S11310805CD0221A002A00DC8EE000281ED1002D3C
S113109000D07AE0580704D00F221A40042A00D066
S11310A004338021C90401221940324000293AD076
S11310B00134FF2C00D183E09B015B0A5B02E4B2A4
S11310C0E405580AD20720431043F8BDFF2CE1D0B1
S11310D08021C9040D431B2A00DD31E1291C202095
S11310E0D140821A95406A1E95410D435B1B5801FD
S11310F0D0D59B019F09381C02F092F8421F9740FB
S113110094425FDC141B1F231B1B3A1C9F40611C71
S11311103B1CCA405F1EBB4113430024BAE7131EA5
S1131120B8D100230022DB08FF2C04D1002B47D0C8
S11311308020C00303435B025B0ABFE7211A002936
S113114044DD002827D0FF2CA4D08020C004054310
S11311501B2900DDF2E0281C2027C840791A8D40A5
S1131160691E8D4105435B19590100D492E701348E
S1131170FF2C59D0734901221A400B405B081343DA
S113118088E7002D00D07AE777E7013A002AADD04E
S1131190FF2CA0D17EE7002D00D17BE70139002987
S11311A0E1D0FF2CD4D175E7002A1BD1621CD2B246
S11311B0012A4BDD5F1B7A0123D5EF1A0E1C9AE737
S11311C000237BE75F4BA41A3B4063E7002946D129
S11311D0611CC8B2012829DDFF2924D0EB185B0863
S11311E00C1C57E7002C13D0FF2818D08024E404EB
S11311F0524223431B2A4DDD0123EB1A041C0E1C0F
S113120075E7002F00D076E70023002200248AE748
S1131210002B3BD0D243002AEFD0FF28EAD12B1C6D
S1131220FF240E1C36E7FF2400237CE7002C5CD14E
S1131230002B00D180E0002D00D12BE75B19580171
S113124000D427E73F4A0124134023E7002C15D19B
S1131250002B40D1002D63D02B1C0E1C1AE7002C50
S113126021D1002B54D0C943002904D0FF284CD0ED
S11312701B2958DD01235B19041C75E7002B19D1C8
S1131280002D48D02B1C0E1CFF2403E72B1C041C30
S11312900E1CFFE61C1C2026D440B21A93405A1E92
S11312A093412343A9E7FF282FD08024E404494233
S11312B02343DDE7FF24002D00D1EBE68022DB0889
S11312C0D203134204D0ED08154201D12B1C0E1C8D
S11312D0DB00FF24DEE6002D00D1DBE65A1B5001C3
S11312E000D41CE7EB1A0E1CD4E6002B0DD0FF240F
S11312F0002D00D1CEE68022DB08D2031342E7D0D2
S1131300ED081542E4D12B1CE2E72B1CFF24C1E6B7
S11313102B1C041CBEE6802300229B04FF2402E74E
S1131320231C0022FFE61C1C2027CC40791A8B408A
S1131330591E8B4123439EE72B1CABE6012512E784
S11313400125D3E6FFFFFFFB4302590A4300C20F06
S11313501B0E00207E2B0DDD9D2B0CDC8020000459
S11313600143952B0ADC9620C31AD9404842002A2F
S113137000D1081C7047034BD018FBE7963B9940FB
S1131380F4E7C046FFFFFF7F70B5041E3CD0C60FD4
S113139000D04442201C01F043FF9E23251C1B1A4D
S11313A0962B0CDC083884406402640ADBB2321CDD
S11313B06402DB05600AD2071843104370BD992B01
S11313C00ADD0522121A211CD1400A1C011C1B3102
S11313D08D40691E8D411543052801DD421F95404E
S11313E0164C2C406A0704D00F221540042D00D05F
S11313F0043461010CD59F23181AFF281AD0A401C4
S1131400640AC3B2321CD3E7002200230024CFE7CE
S1131410E408FF2B04D06402640ADBB2321CC7E781
S1131420002C04D08020C00304436402640A321CEC
S1131430FF23BDE7321CFF230024B9E7FFFFFFFBB6
S113144010B5041E33D001F0EBFE9E231B1A962B1D
S113145009DC083884406402640ADBB26402DB05F8
S1131460600A184310BD992B0ADD0522121A211CAB
S1131470D1400A1C011C1B318C40611E8C41144359
S1131480052801DD421F9440144A2240610704D01C
S11314900F210C40042C00D0043251010AD59F23A3
S11314A0181AFF2816D09401640AC3B2D6E70023A1
S11314B00024D3E7D208FF2B03D05402640ADBB222
S11314C0CCE7002A06D08024E40314436402640AAF
S11314D0FF23C3E7FF230024C0E7C046FFFFFFFB51
S11314E0F8B55F46564644464D46F0B40C034D00ED
S11314F0CE0F610A440F2143C400180380465800EC
S1131500400D8246D80F84464046400A530F034399
S1131510D0006D0D371C83465246664500D1A4E0C9
S1131520AF1A002F00DC09E1002A3BD1184300D098
S1131530EAE0630700D187E00F232340042B00D1A6
S113154082E0221DA242A4416442802309191B04A3
S11315500B40371C141C002B00D17CE0CE4B013512
S11315609D4200D105E1CD4BE408194048074902EA
S113157004430B0B002000211B031A0B0B0D6D05FC
S11315801B0513436A08C64DFF071D4015436D0034
S11315906D08291C3943201C3CBC90469946A24640
S11315A0AB46F8BDBC488542C3D080200004034349
S11315B0382F00DDF0E01F2F00DD24E12020C01BC8
S11315C01A1C814682405846F840024394465846C5
S11315D04A469040421E9041FB40624602431F1C13
S11315E0A21A9442A4416442C91B091B141C0B0295
S11315F09FD549024F0A002F00D1C8E0381C01F0E2
S11316000FFE021C083A1F2A00DDB5E02821091A42
S1131610201C9740C84007439440954200DDB2E047
S1131620551B691C1F2900DDDCE01F22551B3B1CD8
S1131630221CAB40CA40AC40651EAC411343CF40B2
S11316401C43391C002574E780231B040B40371C02
S1131650002B00D082E7904B4807E4080443C908F4
S11316609D4248D009030B0B84E7AA1A9446002A2A
S113167000DC98E05046002852D08748854200D1CB
S113168057E78020000403436246382A00DDFCE06B
S11316901F2A00DD4AE120226046101A1A1C8240EB
S11316A08246914658466246D0404A460243904696
S11316B0584652469040421E90414246024360467C
S11316C0C3401219A242A441644259180919141CB6
S11316D0080200D42DE7704B01359D4200D122E170
S11316E06E4B60081940012323401C1C0443CB07A4
S11316F01C4349081DE7231C0B433AD080231B03DA
S11317000B431B031B0B35E7013F002F65D15846E4
S1131710221A9442A4416442C91A091B141C66E7A4
S11317205846184300D104E70122524294446046CB
S1131730002800D0C5E058460219C3E7002F73D132
S1131740681C4005400D012800DCDEE05A46A21A60
S11317509442BF41C81A7F42C71B380200D489E0B3
S11317605A46141BA3459241591A52428F1A66468F
S113177041E700230024FDE6271C28388740002485
S1131780954200DC4CE74549AD1A3940D1E6201CAE
S113179001F046FD203034E75A461A43531E9A415D
S11317A0D2B200271CE7002A00D0DCE0681C420506
S11317B0520D012A00DC8DE0374DA84200D1F3E040
S11317C05D462A19A242A441644259180919CC075A
S11317D0520814434908051CABE62F48854200D043
S11317E0E6E6A6E62B1C1F3B3A1CDA40131C202914
S11317F06CD03F22551BAF403C43601E84411C43C8
S11318000021002595E6381C20381A1CC240101C03
S1131810202F5DD04022D71BBB405A461A43531E8B
S11318209A4102430027DBE6002D3BD01A4DAA451E
S113183000D193E080252D047F422943382F00DD19
S1131840ACE01F2F00DD29E12025ED1B081C261C20
S1131850A840FE40AC400643651EAC413443F94009
S11318605D462C1BA34592415B1A5242991A554678
S11318706646BCE6131C3B43141C002B00D0BAE69E
S11318800027002100250024E5E65A461A43531E8A
S11318909A41D2B2002314E7FF070000FFFF7FFF45
S11318A0FFFF0F800D1C254358D0FF43002F51D15B
S11318B0041BA3459241591A5242891A5546664659
S11318C095E69648854200D0DEE632E6002793E7A7
S11318D00023A2E7081C2043002D00D0C4E0002808
S11318E000D1F7E05846184300D122E658460219C1
S11318F0A242A441644259180919141C0A0200D4D2
S113190017E6874B0125194013E6081C2043002DD8
S113191039D1002871D15946194303D0191C5C46AA
S1131920664606E600270021002494E66046203837
S11319301A1CC24060469146202800D1ACE04022E7
S1131940121A93405A461A43531E9A414B461A435D
S11319500023B6E6714DAA4500D06FE7191C5C461A
S113196055466646E5E5002D22D10D1C254377D06A
S1131970D543002D71D15C445C45924159185242C3
S113198089185546A4E600284DD15946194300D17B
S113199094E0191C5C466646604DCAE50C43611E22
S11319A08C41E4B200215BE7051C0021002452E6CF
S11319B05A4DAA4554D05542802210040143382D73
S11319C000DD81E01F2D00DD92E02022501B0A1C67
S11319D084468240201CE84002439046624694407C
S11319E0601E844142461443E9405C445C45924194
S11319F0CB185242991855466AE65846184300D106
S1131A0097E55846271ABC429241C81A5242801A96
S1131A10020266D55846041BA3459241591A524204
S1131A20891A664685E55846184333D04807E408C2
S1131A3004438020C9080003014208D0DD080542A0
S1131A4005D15946CA085C071443291C6646630F2E
S1131A50C9001943E400314D6BE5304A9245AED1DB
S1131A60191C5C46554664E5002836D05846184390
S1131A7010D080254807E408C9082D0304432942EF
S1131A80E5D0D8082842E2D15D46EA085C07144351
S1131A90011CDCE7214D4CE5002353E73D1C203DB0
S1131AA00A1CEA40151C202F34D04026F71BB940ED
S1131AB00C43611E8C412C430021D1E68021002778
S1131AC0C903164D0024C6E50C43611E8C41E4B2E3
S1131AD000218AE7191C5C462BE5191C5C460F4D56
S1131AE027E5031C3B4300D11CE7011C3C1C20E5FB
S1131AF02020404240190A1CC2409046202D0BD0A1
S1131B004020451BA9400C43611E8C4145462C4393
S1131B1000216AE70021CBE70021F4E7FF0700007A
S1131B20FFFF7FFFF0B5564644465F464D46F0B48E
S1131B301F1C0B031B0B98464B0087B0041C8146EB
S1131B405B0DC80F161C9A460090002B51D06A4BAF
S1131B509A4531D08022414652030A43630FD20092
S1131B601A43664B90460025E20091469A440024AD
S1131B7002953B031B0B9B46FD0F7B00311C5B0D49
S1131B80019560D05C4A934254D080215846490361
S1131B900143720FC9001143584A8B469B18F10048
S1131BA00020009A04436A4003920F2C00D9ADE050
S1131BB0534EA4003459A746404604436ED1002135
S1131BC002250824884689460295D2E7009C02989B
S1131BD0C34649460194022864D0032800D1ABE2ED
S1131BE0012800D038E2019A002402400025A146D1
S1131BF060E0434623434AD04046002800D1C0E178
S1131C0001F00EFB031E272B00DDB3E128210D1A82
S1131C10211C083B4246E9409A400D1C1543221CF6
S1131C209A40A8469146374B00251B1A9A46002431
S1131C3002959EE75A4616430320002EB1D1B346BF
S1131C4000210220ADE75A4632431BD05B46002BED
S1131C5000D18AE1584601F0E3FA272800DD7DE14E
S1131C602822171A011C321C08395B46FA408B40A3
S1131C70171C1F43331C8B40BB46191C214B1B1ADA
S1131C8000208EE70027BB460021012089E70020C1
S1131C90012504248046814602956AE703250C2425
S1131CA0029566E7019C0394039D01222A400024C7
S1131CB0114DA146002000212403260B0C0D240500
S1131CC0114B34432D0523402B435B005B08D207A3
S1131CD0191C4846114307B03CBC90469946A2469D
S1131CE0AB46F0BD0022802424039146024DE1E777
S1131CF000240025A146DDE7FF07000001FCFFFFEB
S1131D001C6200000DFCFFFFFFFF0F805546ED1A1B
S1131D100495D84500D953E100D14EE1049C002537
S1131D20013C4E4604944746A946584603020C0E0D
S1131D301C430902250C23041B0C0091381C291C8C
S1131D400193FEF7D1FB019983464143381C8A462F
S1131D50291CFEF70DFC330C090419438A450CD9E0
S1131D605B460919013B8C4200D947E18A4500D8FA
S1131D7044E102225242934409195346CB1A181CD7
S1131D80291C9846FEF7B0FB071C0198291C7843D0
S1131D9082464046FEF7ECFB36040B04360C334314
S1131DA09A4509D91B197A1E9C4200D924E19A4507
S1131DB000D821E1023F1B195E4632041743380C58
S1131DC0BB46009E009F51463F0C32045B1A5946A5
S1131DD0BA46120C0F043F0C904651467A434F43C7
S1131DE04146414356467043CF19160CBE19B142C1
S1131DF002D980277F02C019310C12043604120C58
S1131E004018B618834200D2C4E000D1BEE0191ACB
S1131E104846861BB145BF417F42CF1BA74200D134
S1131E2013E1291C381CFEF75FFB01990290414322
S1131E30381C8946291CFEF79BFB330C0904194303
S1131E4089450CD9029B0919013B8C4200D9FFE05A
S1131E50894500D8FCE0029F0919023F02974F46CA
S1131E60CF1B381C291C0597FEF73EFB071C019865
S1131E70291C784381460598FEF77AFB3604090449
S1131E80360C0E43B14509D936197B1EB44200D92C
S1131E90E0E0B14500D8DDE0023F3619029D494635
S1131EA0761A290439430B0457460A0C1B0C404686
S1131EB04546584355437B437A43EB18070CDB19DB
S1131EC09D4202D980256D0252191D0C00041B0489
S1131ED0000C52191B18964235D300D1FCE00123A3
S1131EE01943049E994FF519002D00DCA1E0480721
S1131EF009D00F230B40042B05D00B1D8B428941C5
S1131F0049428B44191C5A46D20107D5904B5C4672
S1131F10049E80271C40FF00A346F5198D4B9D426B
S1131F207ADD039C0122224000248B4DA146C1E6A8
S1131F3080242403474627424CD13C432403240BEA
S1131F40009A854DB6E63619481EB4425ED9011C86
S1131F509642C4D1009E9E42C1D1C2E7031C283BD5
S1131F60311C99408B46002188E6301C01F058F959
S1131F70203072E6283B211C994000228846914675
S1131F8051E6201C01F04CF920303BE60021B1451C
S1131F9000D33DE7009F5A46B944B945BF417F424B
S1131FA03F19FB18013A9C421ED2984200D97EE0A8
S1131FB000D1B5E0191A93462AE7894500D8ADE661
S1131FC04846464642467708D3074608C0071E439C
S1131FD08146AAE65846204212D1044324032A1C0F
S1131FE0240B89465C4D65E6A342E3D1009F4F452F
S1131FF0DBD9211A93460BE7171CDDE69B46BCE6AA
S11320003C432403240B009A534D53E6B24259D85F
S113201000D18AE0011C62E75F46C9087B07039E82
S11320200B437C026D0501229946240B6D0D324051
S113203040E64A4B049FDB1B382B10DD039C012236
S1132040224000240025A14634E60121494248E704
S1132050029304E71F1C21E7019C039441E71F2B13
S113206040DC3F48049F0C1C3A1858469140DC4021
S1132070904020430A1C511E8A41011C11435A46B8
S1132080DA40131C480709D00F220A40042A05D05D
S11320900A1D8A42894149425B18111C1A0234D52F
S11320A0039C0122224000240125A14602E6009F50
S11320B002214942B9448B44B9458941494209192D
S11320C0CB18A4E6009D881E6900A942AD416D426B
S11320D02C19361900913AE7002B00D033E700247D
S11320E0009437E71F4A049C5D46121BD5402A1C06
S11320F0202B1FD01C4E5F46A3199F403B1C194345
S11321004B1E994111430023BCE75A07C9080A43EF
S1132110039F91465B0201221C0B3A400025C9E54E
S11321204E45C4D89346002172E6009F9F42C9D30E
S1132130011C0FE70023E2E7802424035F463C43AD
S11321402403240B019A8946034DB3E5FF030000E1
S1132150FFFFFFFEFE070000FF07000002FCFFFF79
S11321601E040000E2FBFFFF3E040000F0B55F46E2
S113217056464D464446F0B40D1C041C8046E80FF8
S1132180814618030F03000B3F0B83B084461B48A2
S1132190009749005E00DF0F490D9246760DBB465D
S11321A081420CD01548864210D00120B14215D08E
S11321B003B03CBC90469946A246AB46F0BD009F96
S11321C001202743F4D10D488642EED160460243F4
S11321D00120002AECD10120B142E9D1009B6345E2
S11321E0E6D1D045E4D1D94506D00029E0D11C433D
S11321F0201C441EA041DBE70020D9E7FF070000B4
S1132200F0B55F4656464D464446F0B4CD0FDE0F5A
S1132210AC461D032D0BB146374E0F034C00AB46A5
S11322205D0080463F0B640D92466D0DB44232D082
S1132230314EB54235D0002C0ED138434142414194
S1132240081C002D0BD0002919D1CC452DD0654692
S113225068420123184318E0002DF6D1281C594682
S11322600A4353425341002806D1002BEDD0634664
S113227058420123184308E00020002B05D14A46A8
S1132280504250414042012318433CBC9046994679
S1132290A246AB46F0BD3E1C0643C9D002204042D4
S11322A0F3E75E461643C6D0F8E7AC4207DC0BDA28
S11322B0614648424841404201231843E5E76646E7
S11322C0704201231843E0E75F450AD80ED000208E
S11322D05F45DAD2654668426841404201231843AB
S11322E0D3E76246504201231843CEE7D045F8D8DD
S11322F00020D045EED3C8E7FF070000F0B55646EE
S11323004D4644465F46F0B40D1C83B0041C019056
S1132310E80F814618030F03000B3F0B8446354832
S1132320009749005E00DF0F490D9246760DB846CE
S1132330814234D02F48864236D0002918D0002E4E
S11323401FD1341C67463A4353425341002C1FD0DB
S11323500020002B05D14246504250414042012307
S1132360184303B03CBC90469946A246AB46F0BD28
S11323700098044360426041041C002EE2D000280F
S1132380E9D1C14515D04F46784201231843E8E707
S1132390002BF6D04B46584201231843E1E7009F37
S11323A002202743DDD1C5E7674602201743D8D171
S11323B0C3E7B14204DD4A46504201231843D0E743
S11323C0B14207DB00986045E4D80AD0009F0020A2
S11323D06745C6D24F4678427841404201231843AC
S11323E0BFE7019A5245D5D8019A00205245F1D34E
S11323F0B7E7C046FF070000F0B5564644465F46BF
S11324004D46F0B41F1C0B031B0B9A464B0087B0C0
S1132410041C80465B0DC80F161C02938146002BDA
S113242068D0694B0299994232D0802253465203B4
S11324301A43D200630F1A439246644AE000891893
S113244080460291002400253B031B0B9B46780029
S1132450FB0F321C400D039300D175E05A4B984298
S113246069D08022594652030A43730FD2001A439B
S1132470564B9346C018F200002303994E46714010
S11324801C430F2C00D9A9E0514EA4003459A7468F
S113249053461C4300D087E00025AA46A8460824DA
S11324A00225D1E74946022D6CD0032D00D117E255
S11324B0012D00D058E10D40EDB20024A9460023BF
S11324C0A0460020002125030A0D1C052D0B120532
S11324D0404B2A43134023435B004C465B08E2070E
S11324E0191C4046114307B03CBC90469946A2468D
S11324F0AB46F0BD5346234350D05346002B00D186
S113250084E1504600F08CFE031E272B00DD76E1AB
S113251028210D1A211C083B5246E9409A400D1C03
S11325201543221C9A40AA4690462B4B00241B1AA2
S11325300293002588E75B461E430323002E9CD1AB
S1132540B3460022022398E75B46334321D0584622
S1132550002800D14EE100F063FE272800DD42E1AF
S113256028210F1A021C311C083A5B46F94093409B
S11325700F1C1F43331C9340BB461A1C164B181ADE
S113258000237AE701230B4000249946A0460E4B12
S113259097E70027BB46002201236EE700210424AD
S11325A08A46884601254FE70C2403254CE700257D
S11325B08024A9462403A846034B82E7DA469046C2
S11325C003991D1C6FE7C046FF07000001FCFFFFD5
S11325D05C620000FFFF0F800DFCFFFF029F160CE2
S11325E0381804904046070C0004000C1204120C26
S11325F0031C5343041C3D1C7443554398463B1C25
S113260073436419A44644460293230C63449D42D5
S113261004D9029D802464022D1902951D0C039592
S113262045462C041B04240C1C1905945C46230CFD
S1132630051C58432404240C8446381C6043654319
S11326405F438146CC44280C6044BB46814502D993
S113265080277F02BB442D04070C2D0C0004401975
S11326605546BC462F04E3448446280C3D0C2F1CDD
S11326705743B8462F1C77434243B94647463F0C5D
S11326809144BA46D14446434A4502D98022520273
S1132690B6184F463A0CB6183A0447463F043F0C66
S11326A0B8462F1C67435D43444358436519019062
S11326B0380C2D184244B846AC4204D90198802302
S11326C05B02C0180190039C029F201C6044C01947
S11326D06045A44147466442A4462B043C04994601
S11326E0240C4C44A046D8448018C246E24490428C
S11326F09241574652429146F219E245BF417F4208
S11327004B46BC46D845BF41D4187F4263461F435D
S11327102D0C7F19B24292414C45AD4152426D425B
S11327201543019E7D19AB19E20D5B02059F13430E
S113273042023A439A46531E9A41C30D101C184351
S11327406402204380465046C0010DD5454601220F
S11327505646049C6B082A401A43F30701341A4373
S1132760760804949046B246049E634FF319002BF6
S113277061DD404640070BD00F2244462240042A24
S113278006D042460432424580414042824490464B
S11327905546ED0107D5594B5646049F80201E40EF
S11327A0C000B2463B18564A934200DDEAE644466E
S11327B05546E2086807104301226C025B050A4093
S11327C08046240B5B0D91467BE6DA4690461D1C41
S11327D069E680242403574627421CD13C43240342
S11327E0240B484B6DE6031C283B311C99408B4657
S11327F00022C3E6301C00F013FD2030ADE6283B78
S1132800211C994000228A4690468EE6201C00F046
S113281007FD203078E65846204207D10443039947
S11328202403240B89469046364B4AE63C43240352
S1132830240B344B45E6344B049E9B1B382B06DD9E
S113284001230B4000249946A046002339E61F2BA0
S113285025DC049C2D4D464660195246444686406C
S1132860DC4082405746301C2243DF40441EA041D6
S113287002433B1C540709D00F201040042805D004
S1132880101D9042924152429B18021C1D021AD5FF
S113289001230B4000249946A046012311E61C485D
S11328A0049C5546001BC540281C202B16D0194EED
S11328B05746A21997403A1C43461A43531E9A415D
S11328C002430023D6E758075B02D2081C0B0123FE
S11328D00B401043994680460023F2E50022EBE7C3
S11328E08024240350460123044319402403240B69
S11328F08946044BE5E5C046FF030000FFFFFFFEE9
S1132900FE070000FF07000002FCFFFF1E0400009A
S1132910E2FBFFFF3E040000F8B55F46564644461E
S11329204D46F0B40C034D00CF0F610A440F214310
S1132930C4001803DE0F8046B44646465800760AA3
S1132940530F3343D600D14A6D0DBA46400DB346FA
S1132950904200D1F5E062460126724094466745F4
S113296000D1ABE02F1A002F00DC11E100283ED18A
S11329705846184300D0F1E0600700D197E00F23D8
S11329802340042B00D122E1221DA242A44164422F
S1132990802309191B04012750460B400740141CCF
S11329A0002B00D179E0B94B01359D4200D10BE1F8
S11329B0B74BE40819404807490204430B0B0020B5
S11329C000211B031A0B0B0D6D051B0513436A082D
S11329D0B04DFF071D4015436D006D08291C394398
S11329E0201C3CBC90469946A246AB46F8BDA7487D
S11329F08542C1D0802000040343382F00DDFDE070
S1132A001F2F00DD31E12020C01B1A1C5E468240CE
S1132A10FE40324394465A468240101C421E904166
S1132A20FB40624602431F1CA21A9442A441644222
S1132A30C91B091B141C0A029ED549024F0A002F08
S1132A4000D1D6E0381C00F0EBFB021C083A1F2A28
S1132A5000DDC3E02821231C091A9740CB401F4303
S1132A609440954200DDC0E0551B691C1F2900DD20
S1132A70EAE01F22551B3B1C221CAB40CA40AC4061
S1132A80651EAC411343CF401C43391C002573E73A
S1132A9080217E4D0027C90300247C4B4807E408AD
S1132AA00443C9089D4250D009030B0B87E78023D8
S1132AB01B04012752460B40174071E72A1A94461B
S1132AC0002A00DCA1E0002854D07048854200D1DF
S1132AD052E78020000403436046382800DD0EE1FD
S1132AE01F2800DD57E162462020801A1E1C864004
S1132AF0B1465E46D6404A4632435E4686409046DC
S1132B00301C421E9041424602436046C3401219A3
S1132B10A242A441644259180919141C080200D4A1
S1132B202AE75A4B01359D4200D131E1584B6008E8
S1132B301940012323401C1C0443CB071C434908B0
S1132B401AE71E4300D00AE705E7231C0B433BD0DA
S1132B5080231B030B431B031B0B30E7013F002F98
S1132B606DD15E46A21B9442A4416442C91A091B5A
S1132B70141C60E75846184300D1FDE6012676424E
S1132B80B4446046002800D0D0E05E463219BFE766
S1132B90002F00D080E0681C4005400D012800DCB7
S1132BA0E8E05A46A21A9442BF41C81A7F42C71BA2
S1132BB03E0200D498E05846041BA3459241591A9A
S1132BC052428F1AE2463AE700230024F7E68023B4
S1132BD01B04012756460B403740E1E6271C2838E2
S1132BE087400024954200DC3EE72949AD1A39406C
S1132BF0C2E6201C00F014FB203026E75A461A4394
S1132C00531E9A41D2B200270EE7002A00D0DEE01C
S1132C10681C4605760D012E00DC90E01B4DA84291
S1132C2000D1F5E05E463219A242A441644259182B
S1132C300919CC07520814434908051C9CE613489B
S1132C40854200D0D9E697E62B1C1F3B3E1CDE4094
S1132C50331C20296FD03F22551BAF403C43601EDC
S1132C6084411C430021002586E6381C20381E1CA4
S1132C70C640301C202F60D04022D71BBB405A4690
S1132C801A43531E9A4102430027CDE6FF07000072
S1132C90FFFF7FFFFFFF0F80002D37D0B64DA84206
S1132CA000D18FE080252D047F422943382F00DD99
S1132CB0A8E01F2F00DD24E12025ED1B0E1CAE40F3
S1132CC0B046261CFE404246AC401643651EAC414D
S1132CD03443F9405A46141BA34592415B1A5242AD
S1132CE0991A051CE246A6E6131C3B43141C002B50
S1132CF000D0A4E60027002100250024CDE65A4692
S1132D001A43531E9A41D2B2002300E70D1C2543F7
S1132D1058D0FF43002F51D15A46141BA34592416A
S1132D20591A5242891A051CE24684E692488542A1
S1132D3000D0D1E620E6002790E700239FE7081C97
S1132D402043002D00D0C2E0002800D1EFE0584617
S1132D50184300D110E658460219A242A441644225
S1132D6059180919141C0A0200D405E6834B0125DD
S1132D70194001E6081C2043002D38D100286FD1EA
S1132D805946194303D0191C5C46E246F4E5002772
S1132D900021002481E6604620381A1CC2406646A1
S1132DA0101C202E00D1AAE04022921B93405A46C8
S1132DB01A43531E9A4102430023A8E66E4DA842CB
S1132DC000D073E7191C5C46051CE246D4E5002DCF
S1132DD022D10D1C254376D0D543002D70D15C44FF
S1132DE05C459241591852428918051C96E6002800
S1132DF04CD15946194300D14AE6191C5C46E246B7
S1132E005D4DB9E50C43611E8C41E4B2002161E7DC
S1132E10051C0021002440E6574DA84253D05542DA
S1132E20802216043143382D7BDC1F2D00DD8CE01D
S1132E302022561B0A1CB446B240261CEE403243E4
S1132E40904662469440661EB44142461443E940AB
S1132E505C445C459241CB1852429918051C5DE6CE
S1132E605846184300D187E55E46A71BBC429241F1
S1132E70C81A5242801A060260D55846041BA3455C
S1132E809241591A5242891AE24675E55846184346
S1132E9033D04807E40804438020C90800030142F2
S1132EA008D0DD08054205D15946CA085C07144319
S1132EB0291CE246630FC9001943E4002E4D5BE56B
S1132EC02D4A9042AFD1191C5C46051C54E50028DC
S1132ED030D05846184310D080254807E408C90864
S1132EE02D0304432942E5D0D8082842E2D15D46A7
S1132EF0EA085C071443011CDCE71F4D3CE5002392
S1132F0055E73D1C203D0E1CEE40351C202F2ED0D5
S1132F104026F71BB9400C43611E8C412C43002111
S1132F20D8E60C43611E8C41E4B2002190E7191CE1
S1132F305C4621E5191C5C460F4D1DE5031C3B4313
S1132F4000D124E7011C3C1C16E5202676427619A4
S1132F500A1CF2409046202D0BD04026751BA94038
S1132F600C43611E8C4145462C43002170E700212F
S1132F70D1E70021F4E7C046FF070000FFFF7FFF11
S1132F8070B50B1C124C09030E0B5900021C490DA1
S1132F90DD0F0020A14211DD0E4881420FDC8020AC
S1132FA0400306430C48401A1F280BDD0B4A521AF3
S1132FB0D640321C5042002D00D1101C70BD084B6D
S1132FC0E818FBE7074BC240C9188E403243F1E7CB
S1132FD0FE0300001D04000033040000130400007D
S1132FE0FFFFFF7FEDFBFFFFF8B5041E31D0C70FD5
S1132FF000D04442201C00F013F9184D2D1A0A2861
S113300019DD0B38844024036D05240B6D0D3A1C27
S11330100026002000210B0D2403240B1B05234351
S11330200F4C2D051C402C4364006408D307211C5D
S1133030301C1943F8BD061C1536231CB3401E1C56
S11330400B23181AC44024036D05240B6D0D3A1C80
S1133050DFE70022002500240026DAE71E04000032
S1133060FFFF0F8043001B0E5A1C4102D2B270B501
S11330704C0AC50F012A17DDE02292006407090BF0
S11330809818002200231E0D221C34050C431B49F2
S1133090400540082140014349004908ED070B1C45
S11330A02B43101C191C70BD002B15D1002C1CD0F7
S11330B0201C00F0B5F80A281ADC0B21091A231C7D
S11330C0CB40191C031C15339C400D4B0903181AE3
S11330D04005090B400DD4E7002C03D06407090B0D
S11330E00848CEE707480021CBE700200021C8E7C5
S11330F0011C0B398C40211C0024E6E7FFFF0F80E4
S113310089030000FF070000F0B54B000D03420FD8
S11331105B0D6D0A15435A1C5205CC0FC600520DA7
S1133120012A27DD394FDA19FE2A1ADC002A35DD97
S11331308001ED00431E98412843760F3043430736
S113314004D00F230340042B00D004308021C90491
S1133150014027D00132FF2A1DD083015B0AD1B27E
S113316001E0FF2100235802C905400AE40708438F
S11331702043F0BD002B06D1354311D1002100209E
S113318043025B0AEFE72E43EBD08020ED0080047E
S11331902843FF22D3E7FF210023E4E717320DDAA7
S11331A005200022C008D1B2FF2AE9D10028D9D0D5
S11331B08023DB0303435B025B0AD4E780221449C8
S11331C012041543C91A1F290DDC124A371C9B1817
S11331D0281C9F4098403B1C5A1E93411843CE40E4
S11331E030430022ABE70C4F2A1CFF1AFA40171C8D
S11331F0202909D0094A98188540281C3043461EC6
S1133200B041384300229AE70020F7E780FCFFFF33
S11332109E03000082FCFFFF7E030000A2FCFFFF70
S11332201C2101231B04984201D3000C10391B0AF2
S1133230984201D3000A08391B09984201D30009B6
S1133240043902A2105C40187047C046040302020D
S1133250010101010000000000000000F0B589B088
S113326000AF786079683A1C0F323B1C0E33081C9F
S1133270111C1A1C00F0ECFB3B1C0F3319783B1C8F
S11332800E331A783B1C1F338A181A703B1C0E33FA
S11332901B781A1C3B1C0F331B78D31A181CFFF71E
S11332A0A3FE051C0E1C3B1C1F331B78181CFFF7C8
S11332B09BFE031C0C1C281C311C1A1C231CFEF72F
S11332C031FC031C0C1C3B617C613B697C69181C50
S11332D0211CBD4609B0F0BD80B500AFBD4680BD20
S11332E080B500AF414B1B68042B00D97CE09A00E9
S11332F03F4BD3181B689F463C4B00221A603D4B42
S11333001B68002B0ED13C4B1B68181C01F0C4FA3F
S1133310C046394B1B68181C01F09EFA031C002B95
S1133320F7D061E0334B1B68812B08D1314B00226D
S11333301A602E4B04221A6000F08CFA54E053E019
S11333402D4B5B68181C01F01DFCC0462A4B5B68C2
S1133350181C01F0F7FB031C002BF7D0254B1B684E
S11333605A1C244B1A60214B01221A603CE0214B69
S11333701B68012B0DD1204B1B68181C01F080FA2F
S1133380C0461D4B1B68181C01F066FA031C002B79
S1133390F7D10020002100F0D3FF144B02221A6061
S11333A022E0154B5B68181C01F0E0FBC046124B91
S11333B05B68181C01F0C6FB031C002BF7D10B4BF8
S11333C003221A6010E00D4B1B68002B05D00B4B39
S11333D01B685A1C094B1A6005E0084B00221A604E
S11333E0024B03221A60C046BD4680BD50F2FF1F47
S11333F09C620000C0F1FF1FD8F0FF1FC8F1FF1F3F
S113340080B500AF084B1B78DBB2002B08D1074B0B
S11334101A68074BD3180020191C00F0C3FF01E001
S113342000F0B2F8BD4680BD54F3FF1FC0F1FF1F8A
S1133430D4F2FF1F80B584B000AF78607B68FB6076
S1133440FB6801221A71BD4604B080BD0000000073
S1133450B0B588B000AF3860796038687968154BCA
S1133460134AFEF7C9FF031C0C1C181C211CFFF790
S113347087FD031CFB613B687C683A1C10323D1CD1
S11334800C35181C211C2B1C00F016F83B69BB6181
S1133490FB687B61FB69181C00F0FEFDBA697B695F
S11334A0101C191C00F00EFABD4608B0B0BDC04691
S11334B00000000000E0754090B585B000AFB86032
S11334C0F9607A603B60B868F968204B1E4AFDF7E2
S11334D0DBF8031C002B1AD03B6850221A60B86832
S11334E0F9681B4A1B4BFDF7FBFF031C0C1C181C43
S11334F0211C194A194BFEF77FFF031C0C1C181CD6
S1133500211CFFF73DFD021C7B681A6019E07B68F3
S113351050221A600E480F49BA68FB68FFF7FCF99D
S1133520031C0C1C181C211C0B4A0C4BFEF764FFDB
S1133530031C0C1C181C211CFFF722FD021C3B68F9
S11335401A60BD4605B090BD0000000000000000F8
S1133550000000000000F03F0000000000005440A4
S113356080B500AF074B01221A700020012100F042
S1133570E7FEC046034B1B78DBB2002BFAD1BD46F5
S113358080BDC04654F3FF1F90B585B000AFFB1C4F
S11335900120191C00F006FFFB1C1B78181CFDF70A
S11335A04FFF031C181CFFF75DFD031C0C1C181CAB
S11335B0211C724B704AFEF71FFF031C0C1C181CC5
S11335C0211CFFF7A1FD031CBB60B868FFF74AFD8F
S11335D0031C0C1C181C211C694A6A4BFEF70CFFC7
S11335E0031C0C1C181C211CFFF78EFD031C7B60A4
S11335F06B4B1B68181C7968FDF7B6F8031C181C84
S11336008021C905FDF71CFA031C1A1C644B1A60BF
S1133610634B1B68181C6349FDF77AF8031C002BE5
S113362014D0614BDB6B181C01F06EFB5E4B1B6C02
S1133630181C01F0C7FB5C4B5B6C181C01F020FCF0
S1133640594B9B6C181C01F079FC8CE0544B1B68A3
S1133650181CFFF707FD031C0C1C181C211C4A4AEC
S11336604A4BFDF71BF8031C002B14D04E4BDB6BAD
S1133670181C01F049FB4C4B1B6C181C01F0A2FBFD
S1133680494B5B6C181C01F0FBFB474B9B6C181CF3
S113369001F046FC67E0424B1B68181CFFF7E2FC94
S11336A0031C0C1C181C211C394A3A4BFCF7F6FF6E
S11336B0031C002B14D03C4BDB6B181C01F024FBC7
S11336C0394B1B6C181C01F07DFB374B5B6C181CD1
S11336D001F0C8FB344B9B6C181C01F021FC42E048
S11336E02F4B1B68181CFFF7BDFC031C0C1C181C7B
S11336F0211C294A294BFCF7D1FF031C002B14D0B1
S1133700294BDB6B181C01F0FFFA274B1B6C181CB0
S113371001F04AFB244B5B6C181C01F0A3FB224B09
S11337209B6C181C01F0FCFB1DE01F4BDB6B181C91
S113373001F0F8FA1C4B1B6C181C01F051FB1A4BDE
S11337405B6C181C01F0AAFB174B9B6C181C01F056
S113375003FC0023FB6002E0FB680133FB60FA68B2
S1133760124B9A42F8DD124B00221A70BD4605B086
S113377090BDC046C046C046DAE3BA5ECF0C873F70
S1133780CDCCCCCCCCCC1640CDCCCCCCCCCC1C40F1
S11337909A99999999991B406666666666661A4075
S11337A058F3FF1F0000F040D8F0FF1F9F86010070
S11337B054F3FF1FC046C04680B500AF054B03223B
S11337C01A60054B00221A60044B00221A60BD46A1
S11337D080BDC04650F2FF1FC0F1FF1FC8F1FF1F9C
S11337E080B584B000AF7860164B022252421A6052
S11337F0154B7A681A600023FB6007E0134AFB68E4
S1133800D31800221A70FB680133FB60FB687F2B1E
S1133810F4DDFFF7D1FF0E4BDB68181C012102F029
S113382045FCC046074B1A68074B1B689A42F9DBF4
S1133830074BDB68181C002102F038FC181CBD463D
S113384004B080BDCCF1FF1FC4F1FF1F54F2FF1F71
S1133850D8F0FF1F90B583B000AF164B1B68002B48
S11338601FDB00237B6019E0134A7B68D3181C78A4
S1133870124A7B68D3181B781A1C114B1B68101C46
S1133880191CFCF77FFE031CDBB2E318DAB20A4909
S11338907B68CB181A707B6801337B607B687F2B55
S11338A0E2DD044B1B685A1C024B1A60BD4603B090
S11338B090BDC046CCF1FF1F54F2FF1FD4F2FF1F8E
S11338C0C4F1FF1F80B582B000AF786039607B68B7
S11338D01A1CFF3202DB7B68FF2B00DD4FE03B68E4
S11338E01A1CFF3202DB3B68FF2B00DD47E07B68DC
S11338F0002B10DB234B1B6A181CFF2101F0D8FCA2
S1133900204B5A6A7B68DBB2DB43DBB2101C191C08
S113391001F048FD0FE01B4B1A6A7B68DBB2013BE8
S1133920DBB2101C191C01F0C3FC164B5B6A181C9B
S1133930FF2101F037FD3B68002B10DB114B9B6A24
S1133940181CFF2101F0A8FD0E4BDA6A3B68DBB2BC
S1133950DB43DBB2101C191C01F018FE0FE0094B0D
S11339609A6A3B68DBB2013BDBB2101C191C01F004
S113397093FD044BDB6A181CFF2101F007FEBD46D2
S113398002B080BDD8F0FF1F80B582B000AF002325
S11339907B600AE0084A7B68D3181A7807497B6879
S11339A0CB181A707B6801337B607B687F2BF1DD59
S11339B0BD4602B080BDC04654F2FF1FD0F1FF1FC8
S11339C090B585B000AF78600023FB6032E01E4AFA
S11339D0FB68D3181B78181CFDF732FD041C1B4A26
S11339E0FB68D3181B78DBB2181CFDF729FD031CF8
S11339F0201C191CFDF724F8031CBB60B868FFF7F2
S1133A0031FB031C0C1C181C211C0E4B0C4AFCF72C
S1133A1031FE031C002B05D0FB687A68D318002202
S1133A201A7004E0FB687A68D318FF221A70FB68E6
S1133A300133FB60FB687F2BC9DDBD4605B090BD3B
S1133A40333333333333E33F54F2FF1FD0F1FF1FDB
S1133A5080B586B000AFF860B9607A603B1C133360
S1133A6000221A703B1C12337F221A7040237B61A0
S1133A7010E07B69FA68D3181B78002B07D13B1C34
S1133A8012337A691A703B1C133301221A707B6952
S1133A9001337B617B697E2B04DC3B1C13331B7875
S1133AA0002BE6D03B1C12331B78403BDAB27B6818
S1133AB01A703B1C133300221A703B1C1233002271
S1133AC01A703F237B6110E07B69FA68D3181B7876
S1133AD0002B07D13B1C12337A691A703B1C133339
S1133AE001221A707B69013B7B617B69002B04DB3B
S1133AF03B1C13331B78002BE6D03B1C12331B7882
S1133B003F22D31ADAB2BB681A70BD4606B080BD34
S1133B1090B5B5B000AF01F0FDFA414BDB68181C5D
S1133B2002F0ACFA3E4B9B69181C01F0ABF83C4B1D
S1133B305B6B181C01F0A4FD3B1C181C00F078F80A
S1133B4008E00120FFF74CFE364B181C00F07CFA0D
S1133B50FFF706FD324B9B6B181C01F04BF8031C5E
S1133B60002BEED0C0462E4B9B6B181C01F042F884
S1133B70031C002BF7D1FFF707FFC046284B9B6BB4
S1133B80181C01F037F8031C002BF7D0C046244B57
S1133B909B6B181C01F02EF8031C002BF7D101209D
S1133BA0FFF71EFE3B1C3833181CFFF709FF3B1CB4
S1133BB03833181CFFF752FB031C0C1CC021C91915
S1133BC00B604C603A1CC021C9190B684C68101C6E
S1133BD01A1C231C00F048F8031C0C1CB822D21930
S1133BE013605460B821C9190B684C68181C211C57
S1133BF0FFF72EFC0023CC22D219136006E0CC215F
S1133C00C9190B680133CC22D2191360CC23DB19F8
S1133C101A68054B9A42F2DDFFF7A2FCBFE7C046E3
S1133C20D8F0FF1F54F2FF1F4FC300000000000034
S1133C3090B583B000AF78607A680A4C084B936102
S1133C40D4617B6801221A627B68012252425A6263
S1133C507A68044C024B9362D462BD4603B090BDB3
S1133C60000000000000000090B58DB000AFF860C7
S1133C703A607B60374C364B3B627C62354C344B4C
S1133C80BB61FC61334C324B3B617C61FB68181CAB
S1133C9000F006F9FB685C681B68181C211C3A6874
S1133CA07B68FEF7A9FB031C0C1C3B627C62FA6870
S1133CB03B687C68101C1A1C231C00F079F8031C58
S1133CC00C1CBB61FC61FA683B687C68101C1A1C04
S1133CD0231C00F049F8031C0C1C3B617C61FA684E
S1133CE03B687C689362D462386A796ABA69FB6912
S1133CF0FDF7F6FB031C0C1C181C211C3A697B699C
S1133D00FDF7EEFB031C0C1CBB62FC62B86AF96A8B
S1133D10114A124BFCF7AEFC031C002B04D00E4BD3
S1133D200E4CBB62FC620CE0B86AF96A0C4A0D4B9B
S1133D30FCF7B4FC031C002B03D0094B094CBB62F9
S1133D40FC62BB6AFC6A181C211CBD460DB090BD08
S1133D500000000000000000000000000000F0BFB0
S1133D60000000000000F03F90B585B000AFF8609F
S1133D703A607B60FB68DC6A9B6A386879681A1C65
S1133D80231CFEF7C9FD031C0C1C191C221CFB6818
S1133D90DC689B68081C111C1A1C231CFEF72CFBF6
S1133DA0031C0C1C181C211CBD4605B090BDC0464C
S1133DB0F0B585B000AFF8603A607B603868796828
S1133DC0344B334AFCF756FC031C002B04D0FA682E
S1133DD0314B324C9361D461FB68DC699B69181CDC
S1133DE0211C3A687B68FDF77BFB031C0C1CFA68FA
S1133DF09361D461FB689D69DE69FB681B6A181CCA
S1133E00FFF7F2F8031C0C1C281C311C1A1C231C81
S1133E10FCF744FC031C002B0AD0FB681B6A181C2B
S1133E20FFF7E2F8031C0C1CFA689361D4611CE0F0
S1133E30FB689D69DE69FB685B6A181CFFF7D4F8B0
S1133E40031C0C1C281C311C1A1C231CFCF712FC20
S1133E50031C002B09D0FB685B6A181CFFF7C4F82D
S1133E60031C0C1CFA689361D461FB689969DA69D4
S1133E70FB685C691B69081C111C1A1C231CFEF7D7
S1133E80BBFA031C0C1C181C211CBD4605B0F0BD5C
S1133E909A9999999999B93F00000000000000008F
S1133EA090B583B000AF7860254B9B6D181C00F073
S1133EB089FD031C002B05D07A681A4C184B13603B
S1133EC0546004E07A68184B184C136054601C4B1F
S1133ED0DB6D181C00F0B4FD031C002B05D07A68C0
S1133EE0134B144C1361546104E07A680E4B0F4C6D
S1133EF013615461124B1B6E181C00F0DFFD031C90
S1133F00002B05D07A680C4B0C4C9360D46004E011
S1133F107A68054B054C9360D460BD4603B090BDF0
S1133F209A9999999999E93F0000000000000000CE
S1133F30333333333333E33F9A9999999999D93F7A
S1133F40D8F0FF1FC046C04680B500AF054B181C13
S1133F5001F020FC021C034B1A60024B00221A7170
S1133F60BD4680BD7CF0FF1F80B582B000AF021C4F
S1133F70FB1D1A700C4B00221A71C0460A4B1A68BA
S1133F80FB1D101C191C012201F0DCFC031C002B7E
S1133F90F4D1C046044B1B79DBB2002BFAD0181CB9
S1133FA0BD4602B080BDC0467CF0FF1F80B588B01E
S1133FB000AF021CFB1D1A70FB1D1B78181C0A2184
S1133FC0FCF7D6FA0B1CDAB23B1C1F3330321A70E2
S1133FD0FB1D1B78181C0A21FCF786FA031CDBB2B4
S1133FE0BB61BB69181C0A21FCF722FB0B1CDAB26B
S1133FF03B1C173330321A70BB69181C0A21FCF7BA
S1134000C1FA031C3B613B69181C0A21FCF710FB35
S11340100B1CDAB23B1C0F3330321A703B1C0F33CB
S11340201B78181CFFF7A0FF3B1C17331B78181CC8
S1134030FFF79AFF3B1C1F331B78181CFFF794FFF4
S1134040BD4608B080BDC04680B584B000AF78607E
S1134050FFF77AFF0023FB600CE0FB687A68D31853
S11340601B78181CFFF7A2FF2020FFF77DFFFB68D9
S11340700133FB60FB687F2BEFDD0A20FFF774FF41
S11340800D20FFF771FF034B01221A70BD4604B0E7
S113409080BDC0465CF3FF1F80B582B000AF78607E
S11340A07A680B4B9A4204DB7A68AF235B009A422E
S11340B000DD0AE0074B5A6B7B689BB20649CB1ABA
S11340C09BB2101C191C01F0F3FABD4602B080BD6E
S11340D0A2FEFFFFD8F0FF1F7648000080B58AB02B
S11340E000AFF860B9607A607B687B6204233B624E
S11340F00323FB610223BB6101237B6101233B6139
S1134100FA68BB689A4202D07B68002B00D14DE06C
S113411049E0BB68FA69134018D1FB68FA69134097
S113412014D17A6A3B6A9A4210D3FB68BA6812685F
S11341301A60FA683B6AD318FB60BA683B6AD31802
S1134140BB607A6A3B6AD31A7B622CE0BB687A69EB
S1134150134018D1FB687A69134014D17A6ABB6999
S11341609A4210D3FB68BA6812881A80FA68BB694D
S1134170D318FB60BA68BB69D318BB607A6ABB69A1
S1134180D31A7B620FE0FB68BA6812781A70FA6877
S11341903B69D318FB60BA683B69D318BB607A6A81
S11341A03B69D31A7B627B6A002BB2D1BD460AB04D
S11341B080BDC04690B583B000AF234B002B00D127
S11341C03EE000237B601DE01F497A68131C5B00FE
S11341D09B189B00CB1858681B497A68131C5B001A
S11341E09B189B005958184C7A68131C5B009B1849
S11341F09B00E31808331B681A1CFFF76FFF7B68EA
S113420001337B6010497A68131C5B009B189B0088
S11342105B58002BD8D10C497A68131C5B009B189F
S11342209B00CB185B68002BCED107497A68131C1E
S11342305B009B189B00CB1808331B68002BC3D171
S1134240BD4603B090BDC0465063000080B500AFCA
S1134250BD4680BD80B500AFBD4680BD0A4C201C64
S1134260002805D0854681B00020C043009001B0ED
S1134270FFF7ECFF00F0C6FEFFF79CFFFFF7EAFF35
S1134280FCF7F6F8FEE7C0460030002080B500AF2A
S1134290034B00221A70024B00225A70BD4680BDA7
S11342A064F3FF1F80B500AF1E4B1B78DBB2002BFD
S11342B036D01C4B1B78DBB2032B0BD01A4B0022DD
S11342C01A701A4B00221A70FFF7E0FF184B0022F5
S11342D01A7018E0154B1B78DBB2164AD35CDB432B
S11342E0DBB2114A1278D2B21340DAB20E4B1A7012
S11342F00E4B1B78DBB2104A0021D1540B4B1B78B8
S1134300DAB20B4B1A700D4B1A68094B101C191CAE
S1134310012200F097F9094B1B68181C00F070F992
S1134320BD4680BD85F0FF1F8CF0FF1F84F0FF1F8A
S113433088F0FF1FB062000064F3FF1F60F3FF1FEB
S113434080B582B000AF0A1CFB1D011C1970BB1D97
S11343501A70BB1D1B78012B01D902231AE00F4BE5
S11343601B78DBB2002B01D0082313E00B4B032294
S11343701A700B4BBA1D12781A70FFF793FFFB1DCE
S11343801B78002B05D0C046044B1B78DBB2032BF3
S1134390FAD00023181CBD4602B080BD85F0FF1F73
S11343A084F0FF1F80B582B000AF021C3960FB1D92
S11343B01A70FB1D1B78012B01D9022314E0FB1D8D
S11343C01B780B4AD35C0B4A1278D2B21340DBB28F
S11343D0002B01D1092307E0FB1D1B78064AD35C9F
S11343E0DAB23B681A700023181CBD4602B080BDC7
S11343F0B06200008CF0FF1F64F3FF1F80B582B031
S113440000AF7860344B1B78DBB2042B08D1334BFC
S11344101B68181C00F07CF92F4B00221A7058E01E
S11344202D4B1B78DBB2032B36D02C4B1A682C4B4C
S11344301B78DBB2191C2B4BCB18101C191C00F079
S113444037F9274B1B78DBB20133DAB2244B1A70ED
S1134450234B1B78DBB2022B0BD1214B00221A70A9
S1134460214B03221A70FEF7CBFF1B4B00221A705C
S11344702FE01B4B1B78DAB21C4B1A70174B1A68CF
S11344801A4B101C191C012200F0DCF8134B1B689A
S1134490181C00F0B5F81CE0104B1A68104B1B7880
S11344A0DBB2191C0F4BCB18101C191C00F000F9BF
S11344B00B4B1B78DBB20E4AD25C0B4B1B78DBB286
S11344C01343DAB2084B1A70FEF79AFF024B00222C
S11344D01A70BD4602B080BD85F0FF1F60F3FF1F58
S11344E084F0FF1F64F3FF1F8CF0FF1F88F0FF1F91
S11344F0B062000080B500AF064B00221A70064B74
S113450000221A70002000F00BF8021C034B1A6002
S1134510BD4680BD8CF0FF1F85F0FF1F60F3FF1FB9
S113452080B584B000AF78602B4BFB60FB687A6881
S11345305A602A4BFA681A60FB6800221A70FB68FA
S113454000229A70264A2649264BCB588021090519
S11345501943244BD150244A2349C3239B00CB58ED
S11345609B009908C3239B00D1501F4B1E4A12681D
S1134570802109020A431A601C4B1C4A51691C4AD7
S11345800A405A611B4B1B4AD26810210A43DA6065
S1134590194B194A516F164A0A405A67154B154A66
S11345A0D26810210A43DA60124B61229A60114BDF
S11345B0104AD2680F218A43DA600E4B00221A6235
S11345C00C4B40225A620D4BFA681A61FB68181CA6
S11345D0BD4604B080BDC04690F0FF1F98F0FF1F99
S11345E0007004403C10000000E100E000C0044002
S11345F0FFF8FFFE00B0034000D00440D8F0FF1FD6
S113460080B582B000AF78600D4B1A6A80231340E6
S113461001D0082310E00A4B094A526A48218A4310
S11346205A62074B064A126A40218A431A62044BB3
S11346307A6852781A600023181CBD4602B080BD07
S113464000B0034080B586B000AFF860B960FB1DD0
S11346501A70FB687B61FB1D1B78012B03D8FB1DC3
S11346601B78002B01D196231AE00F4B1A6A802382
S1134670134001D0082313E07B69FA1D12781A70E5
S1134680BB681B78012B01D9822309E0BB681B7826
S1134690064AD35C40221343DAB27B695A70002382
S11346A0181CBD4606B080BD00B00340B4620000D3
S11346B080B584B000AF786039603B68BB603B1C58
S11346C00F3300221A7014E03B1C0F331B78BA68B6
S11346D0D3180E4A391C0F310978043189008A58DD
S11346E0D2B21A703B1C0F331A783B1C0F330132C1
S11346F01A707B681B783A1C0F3212789A42E3D303
S11347000023181CBD4604B080BDC04600B0034061
S113471080B584B000AF78602A4B5A6A40231340B6
S113472001D01B234AE0274BDB6CFB60254B9B6CC1
S1134730FA68D318FB60234B5B6CFA68D318FB60F0
S1134740204B1B6CFA68D318FB601E4BDB6BFA68BA
S1134750D318FB601B4B9B6BFA68D318FB60FB6898
S11347605B08802212021343FB60164BFA68DA627C
S1134770144BDB6EFB60134B9B6EFA68D318FB6023
S1134780104B5B6EFA68D318FB600E4B1B6EFA6815
S1134790D318FB600B4BDB6DFA68D318FB60094B35
S11347A09B6DFA68D318FB60FB685B0880221202D9
S11347B01343FB60034BFA681A630023181CBD46BD
S11347C004B080BD00B0034080B582B000AF084B98
S11347D01B687B607B6801229A707B685B68181C8D
S11347E0FFF70CFE034B1B69BD4602B080BDC046FB
S11347F098F0FF1F00B0034080B584B000AF78602C
S1134800104BFB60FB687A681A600F4B0E4A5269C2
S113481080210A435A610C4B0B4A126880218A4357
S11348201A600A4B094AD169094A0A4080214900A1
S11348300A43DA61074BFA681A60FB68181CBD4624
S113484004B080BD9CF0FF1FC0F00F4000C00440C6
S1134850FFF8FFFED8F0FF1F80B584B000AF78608A
S1134860064B1A6880231340FB60FB685A1E934171
S1134870DBB2181CBD4604B080BDC046C0F00FF8C2
S113488080B582B000AF7860024B80229A60BD464A
S113489002B080BDC0F00FF880B582B000AF786080
S11348A0024B80225A60BD4602B080BDC0F00FF8B2
S11348B080B584B000AF7860104BFB60FB687A6809
S11348C01A600F4B0E4A526901210A435A610C4B7C
S11348D00B4A126801210A431A600A4B094A1168FB
S11348E0094A0A40802149000A431A60074BFA68C2
S11348F01A65FB68181CBD4604B080BDA0F0FF1FFC
S113490000F10F4000D00440FFF8FFFED8F0FF1F75
S113491080B584B000AF7860104BFB60FB687A68A8
S11349201A600F4B0E4A526902210A435A610C4B1A
S11349300B4A126802210A431A600A4B094A516859
S1134940094A0A40802149000A435A60074BFA6821
S11349505A65FB68181CBD4604B080BDA4F0FF1F57
S1134960C0F00F4000C00440FFF8FFFED8F0FF1F66
S113497080B584B000AF78600D4BFB60FB687A684B
S11349801A600C4B0B4A526904218A435A610A4B40
S1134990094A9168094A0A40802149000A439A60F9
S11349A0074BFA689A65FB68181CBD4604B080BDC5
S11349B0A8F0FF1F00F10F4000D00440FFF8FFFEF5
S11349C0D8F0FF1F80B584B000AF7860064B1A6939
S11349D004231340FB60FB685A1E9341DBB2181C8E
S11349E0BD4604B080BDC04600F10FF880B584B068
S11349F000AF78600D4BFB60FB687A681A600C4B63
S1134A000B4A526908218A435A610A4B094AD16800
S1134A10094A0A40802149000A43DA60074BFA68D0
S1134A20DA65FB68181CBD4604B080BDACF0FF1FFE
S1134A3000F10F4000D00440FFF8FFFED8F0FF1F44
S1134A4080B584B000AF7860064B1A690823134020
S1134A50FB60FB685A1E9341DBB2181CBD4604B0D0
S1134A6080BDC04600F10FF880B584B000AF786017
S1134A700D4BFB60FB687A681A600C4B0B4A526959
S1134A8010218A435A610A4B094A1169094A0A40AA
S1134A90802149000A431A61074BFA681A66FB68C9
S1134AA0181CBD4604B080BDB0F0FF1F00F10F40DC
S1134AB000D00440FFF8FFFED8F0FF1F80B584B09B
S1134AC000AF7860064B1A6910231340FB60FB6843
S1134AD05A1E9341DBB2181CBD4604B080BDC046CB
S1134AE000F10FF880B584B000AF7860104BFB6024
S1134AF0FB687A681A600F4B0E4A526902210A4316
S1134B005A610C4B0B4A126802218A431A600A4B01
S1134B10094A5168094A0A40802149000A435A60F7
S1134B20074BFA685A60FB68181CBD4604B080BD88
S1134B30B4F0FF1F00F10F4000D00440FFF8FFFE67
S1134B40D8F0FF1F80B584B000AF7860064B1A68B8
S1134B5002231340FB60FB685A1E9341DBB2181C0E
S1134B60BD4604B080BDC04600F10FF880B582B0E8
S1134B7000AF7860024B02229A60BD4602B080BD4D
S1134B8000F10FF880B582B000AF7860024B0222CA
S1134B905A60BD4602B080BD00F10FF880B584B004
S1134BA000AF78600D4BFB60FB687A681A600C4BB1
S1134BB00B4A51690B4A0A405A610B4B0A4A516C21
S1134BC00A4A0A40802149000A435A64084BFA6899
S1134BD09A63FB68181CBD4604B080BDB8F0FF1F83
S1134BE080F00F40FFFFFDFF00B00440FFF8FFFE20
S1134BF0D8F0FF1F80B584B000AF7860064B1A6907
S1134C0080239B021340FB60FB685A1E9341DBB276
S1134C10181CBD4604B080BD80F00FF880B584B088
S1134C2000AF7860114BFB60FB687A681A60104B28
S1134C300F4A5269802189030A435A610C4B0C4A7A
S1134C4011680C4A0A401A600B4B0B4A516D0B4A0F
S1134C500A40802149000A435A65094BFA689A615F
S1134C60FB68181CBD4604B080BDC046BCF0FF1FE5
S1134C7000F10F40FFFFDFFF00D00440FFF8FFFE0C
S1134C80D8F0FF1F80B582B000AF7860034B80225C
S1134C9092035A60BD4602B080BDC04600F10FF8D1
S1134CA080B584B000AF7860114BFB60FB687A6814
S1134CB01A60104B0F4A5269802109010A435A6154
S1134CC00C4B0C4A11680C4A0A401A600B4B0B4AF5
S1134CD0D16A0B4A0A40802149000A43DA62094B2F
S1134CE0FA68DA63FB68181CBD4604B080BDC04690
S1134CF0C0F0FF1F40F00F40FFF7FFFF00A004408B
S1134D00FFF8FFFED8F0FF1F80B582B000AF7860D7
S1134D10034B802212015A60BD4602B080BDC046DA
S1134D2040F00FF880B582B000AF7860034B80226A
S1134D301201DA60BD4602B080BDC04640F00FF8F3
S1134D4080B584B000AF7860114BFB60FB687A6873
S1134D501A60104B0F4A52698021C9000A435A61F4
S1134D600C4B0C4A11680C4A0A401A600B4B0B4A54
S1134D70916A0B4A0A40802149000A439A62094B0E
S1134D80FA681A64FB68181CBD4604B080BDC046AE
S1134D90C4F0FF1F40F00F40FFFBFFFF00A00440E2
S1134DA0FFF8FFFED8F0FF1F80B582B000AF786037
S1134DB0034B8022D2009A60BD4602B080BDC0463B
S1134DC040F00FF880B582B000AF7860034B8022CA
S1134DD0D2005A60BD4602B080BDC04640F00FF814
S1134DE080B582B000AF7860034B8022D200DA60D5
S1134DF0BD4602B080BDC04640F00FF880B584B017
S1134E0000AF7860114BFB60FB687A681A60104B46
S1134E100F4A5269802189000A435A610C4B0C4A9B
S1134E2011680C4A0A401A600B4B0B4A516A0B4A30
S1134E300A40802149000A435A62094BFA685A64BD
S1134E40FB68181CBD4604B080BDC046C8F0FF1FF7
S1134E5040F00F40FFFDFFFF00A00440FFF8FFFEFD
S1134E60D8F0FF1F80B582B000AF7860034B80227A
S1134E7092009A60BD4602B080BDC04640F00FF873
S1134E8080B582B000AF7860034B802292005A60F4
S1134E90BD4602B080BDC04640F00FF880B582B078
S1134EA000AF7860034B80229200DA60BD4602B006
S1134EB080BDC04640F00FF880B584B000AF786084
S1134EC0114BFB60FB687A681A60104B0F4A5269F9
S1134ED0802149000A435A610C4B0C4A11680C4A60
S1134EE00A401A600B4B0B4A116A0B4A0A40802194
S1134EF049000A431A62094BFA689A64FB68181C51
S1134F00BD4604B080BDC046CCF0FF1F40F00F404A
S1134F10FFFEFFFF00A00440FFF8FFFED8F0FF1FD4
S1134F2080B582B000AF7860034B802252009A6053
S1134F30BD4602B080BDC04640F00FF880B582B0D7
S1134F4000AF7860034B802252005A60BD4602B025
S1134F5080BDC04640F00FF880B582B000AF7860E5
S1134F60034B80225200DA60BD4602B080BDC046C9
S1134F7040F00FF880B584B000AF7860114BFB604F
S1134F80FB687A681A60104B0F4A52698021C90283
S1134F900A435A610C4B0C4A12688021C9020A4325
S1134FA01A600A4B094A916C094A0A408021490057
S1134FB00A439A64074BFA68DA64FB68181CBD4616
S1134FC004B080BDD0F0FF1F40F00F4000A00440AB
S1134FD0FFF8FFFED8F0FF1F80B582B000AF786005
S1134FE0FEF77EF9BD4602B080BDC04680B500AF75
S1134FF0FEF772F9BD4680BD80B500AFFFBEBD4669
S113500080BDC04680B500AF364A3749374BD150D2
S1135010374A88235B010021D150354A354BC021E2
S11350208902D150324A3249334BCB58F821890195
S11350301943314BD150314B9B78DBB21A1C0823F6
S1135040134007D02D4B2D4A9278D2B208210A433F
S1135050D2B29A70264A274B0021D150244A2449BF
S1135060274BC958274B1940254BD150204B204A78
S11350701268C02109030A431A601D4A1C49204BC7
S1135080C958214B0B408021490419431C4BD15072
S11350901E4B06221A701D4B00225A701B4B1B4AD2
S11350A0D278D1B21F220A40D2B2DA70184B8022D1
S11350B01A70164B00221A71144B00225A71C04602
S11350C0124B9B79DBB21A1C10231340F8D0C04654
S11350D00E4B9B79DBB21A1C0C231340F8D1BD464E
S11350E080BDC04600E000E000000000080D0000A4
S11350F000700440441000003810000000D0074045
S113510004100000FFFFFCFFFFFFFFFC004006400F
S11351100050064080B500AF484B484A1169484AE0
S11351200A40E021C9000A431A61464B454A5279B4
S1135130D2B21F218A43D2B25A71424B414A1279E8
S1135140D2B207218A43D2B21A713F4B3E4A127837
S1135150D2B2D2B273218A43D2B250210A43D2B21C
S1135160D2B21A70384B384A5278D2B2D2B26321D2
S11351708A43D2B240210A43D2B2D2B25A70324BDD
S1135180314A9278D2B219218A43D2B29A702F4B03
S113519000221A70294B294A116D294A0A40E0213C
S11351A0C9000A431A652A4A2949C1239B00C958E0
S11351B0284B1940C1239B00D1500020FFF71CFB52
S11351C00020FFF78FFC002000F030FFFFF792F97A
S11351D00020FFF723FD002000F03EF8002000F03F
S11351E0B5F8002000F02CF9002000F0A3F900200D
S11351F000F01AFA0020FFF7D1FC0020FFF750FD61
S11352000020FFF79DFD0020FFF7F8FD0020FFF7C9
S113521053FE0020FFF7AEFE0020FFF749FB0020FD
S1135220FFF776FB0020FFF7A3FB0020FFF7DEFB70
S11352300020FFF719FC62B6BD4680BD0090044013
S1135240FFF8FFFE00F0074000D0074000E00740F1
S113525000E100E0FFFF3FFF80B584B000AF78605D
S1135260114BFB60FB687A689A60FB6801221A7133
S1135270FB6801225242DA800C4BFA681A62002061
S113528000F032FD021CFB681A60FB681B68002BEF
S113529004D1064B00221A62002300E0FB68181CAC
S11352A0BD4604B080BDC0463CF1FF1FD8F0FF1FCF
S11352B080B584B000AF78600A1CFB1C1A707B6850
S11352C0FB60FB1C1B789BB21B029AB2FB68DA8062
S11352D07B68181C00F006F80023181CBD4604B0B7
S11352E080BDC04680B586B000AF78607B683B6106
S11352F03B691A683B1C0E33101C191C00F08EFD10
S11353003B1C0E331B88002B05D13B1C16333A691A
S1135310D2881A800CE03B1C0E331B883A69D28871
S11353205343802212029B181A0C3B1C16331A801A
S11353303B691A683B1C16331B88101C00211A1C7D
S113534000F08AFDBD4606B080BDC04680B584B07D
S113535000AF7860114BFB60FB687A689A60FB6869
S113536001221A71FB6801225242DA800C4BFA685E
S11353705A62002000F0B8FC021CFB681A60FB684B
S11353801B68002B04D1064B00225A62002300E064
S1135390FB68181CBD4604B080BDC04648F1FF1F21
S11353A0D8F0FF1F80B584B000AF78600A1CFB1CE6
S11353B01A707B68FB60FB1C1B789BB21B029AB2C1
S11353C0FB68DA807B68181C00F006F80023181CC0
S11353D0BD4604B080BDC04680B586B000AF7860DD
S11353E07B683B613B691A683B1C0E33101C191C1B
S11353F000F014FD3B1C0E331B88002B05D13B1C15
S113540016333A69D2881A800CE03B1C0E331B8891
S11354103A69D2885343802212029B181A0C3B1C0F
S113542016331A803B691A683B1C16331B88101C00
S113543001211A1C00F010FDBD4606B080BDC04617
S113544080B584B000AF7860114BFB60FB687A686C
S11354509A60FB6801221A71FB6801225242DA80C9
S11354600C4BFA689A62002000F03EFC021CFB68B8
S11354701A60FB681B68002B04D1064B00229A6259
S1135480002300E0FB68181CBD4604B080BDC04684
S113549054F1FF1FD8F0FF1F80B584B000AF7860CF
S11354A00A1CFB1C1A707B68FB60FB1C1B789BB2FC
S11354B01B029AB2FB68DA807B68181C00F006F8BD
S11354C00023181CBD4604B080BDC04680B586B01C
S11354D000AF78607B683B613B691A683B1C0E3304
S11354E0101C191C00F09AFC3B1C0E331B88002B6B
S11354F005D13B1C16333A69D2881A800CE03B1C58
S11355000E331B883A69D2885343802212029B18B7
S11355101A0C3B1C16331A803B691A683B1C163361
S11355201B88101C02211A1C00F096FCBD4606B014
S113553080BDC04680B584B000AF7860114BFB607D
S1135540FB687A689A60FB6801221A71FB68012281
S11355505242DA800C4BFA68DA62002000F0C4FB95
S1135560021CFB681A60FB681B68002B04D1064B05
S11355700022DA62002300E0FB68181CBD4604B078
S113558080BDC04660F1FF1FD8F0FF1F80B584B016
S113559000AF78600A1CFB1C1A707B68FB60FB1C64
S11355A01B789BB21B029AB2FB68DA807B68181CDA
S11355B000F006F80023181CBD4604B080BDC046A8
S11355C080B586B000AF78607B683B613B691A6840
S11355D03B1C0E33101C191C00F020FC3B1C0E332A
S11355E01B88002B05D13B1C16333A69D2881A80DC
S11355F00CE03B1C0E331B883A69D288534380224B
S113560012029B181A0C3B1C16331A803B691A6849
S11356103B1C16331B88101C03211A1C00F01CFCB5
S1135620BD4606B080BDC04680B584B000AF78608A
S1135630104BFB60FB687A689A60FB6800221A7161
S1135640FB680D4ADA800D4BFA685A63002000F0BB
S11356502FFC021CFB681A60FB681B68002B04D13A
S1135660064B00225A63002300E0FB68181CBD4669
S113567004B080BD6CF1FF1F6FEDFFFFD8F0FF1F7A
S113568080B584B000AF78607B68FB60FB681B79F1
S1135690002B07D1FB6801221A71FB681B68181CD8
S11356A000F06CFC0023181CBD4604B080BDC0464D
S11356B080B584B000AF78600A1CBB1C1A807B687C
S11356C0FB60BB1C1A88164B9A4201D9862323E03F
S11356D0BB1C1B88181CFBF757FE031C181C114924
S11356E0FBF792FB031CBB60B8680F49FBF710F88B
S11356F0031C002B04D0FB6801225242DA8006E02E
S1135700B868FBF719F8031C9AB2FB68DA807B6867
S1135710181C00F00BF80023181CBD4604B080BD13
S1135720204E0000E3B6514000FF7F4780B586B0AD
S113573000AF78607B683B613B691A683B1C0E33A1
S1135740101C191C00F032FC3B1C0E331B88002B70
S113575005D13B1C16333A69D2881A800CE03B1CF5
S11357600E331B883A69D2885343802212029B1855
S11357701A0C3B1C16331A803B691A683B1C1633FF
S11357801B88101C00211A1C00F02EFCBD4606B01C
S113579080BDC04680B584B000AF78605E4BFB60CE
S11357A0FB6800225A80FB6800221A81FB680022F1
S11357B05A60FB6800225A81FB6800221A82FB6847
S11357C00022DA60FB687A685A61544BFA681A60FE
S11357D0534A5349534BCB588021C9001943514B69
S11357E0D150514B504A5168504A0A408021890097
S11357F00A435A604C4B4C4A91684C4A0A408021F7
S113580089000A439A604A4A4949C3239B00CB58FA
S1135810C021181C8843011CC3239B00D150444B56
S1135820434A1268802149010A431A60414B414AA4
S1135830D278D2B208218A43D2B2DA703D4B3D4AC3
S1135840D278D2B204218A43D2B2DA70FB68002241
S11358501A80384B00229A70364B00229A71354BCD
S113586000229A72334B00225A712D4A2C49324B32
S1135870C958324B0B408021C90419432E4BD150D7
S11358802C4B2C4A1278D2B21F218A43D2B21A70FE
S1135890284B2E225A70274B264A927AD2B2D2B281
S11358A01F218A43D2B203210A43D2B2D2B29A72DE
S11358B0204B204AD27AD2B2D2B202210A43D2B2C7
S11358C0D2B2DA721B4B1B4AD278D2B2D2B20821BE
S11358D00A43D2B2D2B2DA70164B164AD278D2B296
S11358E0D2B204210A43D2B2D2B2DA70114B114AB5
S11358F0D278D2B220210A43D2B2DA700D4B0D4ACB
S11359009279D2B29A710E4BFA685A61FB68181CEC
S1135910BD4604B080BDC04678F1FF1F90F1FF1F63
S1135920007004403410000000900440FFF8FFFEB3
S113593000E100E000A0064004100000FFFFFFF3B8
S1135940D8F0FF1F80B586B000AFF860B960BB1D0A
S11359501A80FB687B61BB1D1B88002B01D184234B
S113596048E07B691B8A002B01D0082342E03B1CE2
S11359701333EFF3108072B61870204B1B78DBB230
S11359800133DBB21D4A191C1170012B04D13B1CDD
S113599013331A781A4B1A707B69BA68DA607B6918
S11359A0BA1D12881A827B6900225A817B691B887E
S11359B0012213439AB27B691A80124B114AD2789E
S11359C0D2B2802149420A43D2B2DA700D4B0D4A59
S11359D09279D2B29A71094B1B78DBB2013BDBB2EC
S11359E0064A191C1170002B03D1054B187880F35B
S11359F010880023181CBD4606B080BDD4F0FF1FDC
S1135A0066F3FF1F00A0064090B583B000AF786036
S1135A10104BDB79DBB21C1C7B681B89002B15D077
S1135A207B685B68591C7A685160E2B21A707B68C3
S1135A305B8801339AB27B685A807B685A887B689A
S1135A401B899A4202D17B6800221A81BD4603B0A9
S1135A5090BDC04600A0064080B582B000AF78601B
S1135A607B685A897B681B8A9A421CD219497B68D5
S1135A70DB68581C7A68D0601B78CB717B685B89C3
S1135A8001339AB27B685A817B685A897B681B8A86
S1135A909A421CD17B6800221A827B685B69181CBD
S1135AA0FDF7C8FC13E00B4B0A4AD278D1B27F222F
S1135AB00A40D2B2DA70074B064A9279D2B29A718E
S1135AC07B681B88012293439AB27B681A80BD4687
S1135AD002B080BD00A0064090B583B000AF154B66
S1135AE01B687B60144B1B79DBB21C1C0F23234007
S1135AF009D0114B0F221A710F4BDB792023221C82
S1135B009A43131C1C1C2023234003D07B68181CBD
S1135B10FFF77AFF7B681B881A1C0123134006D009
S1135B208023234003D07B68181CFFF795FFBD46F4
S1135B3003B090BD90F1FF1F00A0064080B584B073
S1135B4000AF78602A4B9B68002B40D1294BFB6047
S1135B50FB687A685A60FB6801221A70264BFA685F
S1135B601A60264A2549264BCB588021090419433B
S1135B70234BD150234B00221A60224A84235B001A
S1135B800021D1501F4A86235B000121D1501D4AB8
S1135B9080235B00D121D1501B4A1B49C5239B00A4
S1135BA0C9581A4B1940C5239B00D150164B164AAD
S1135BB012688021C9030A431A60124A84235B00D5
S1135BC00021D1500A4BFA689A60FB680CE0084B3C
S1135BD09B68FB60FB687A685A60FB681B7801333A
S1135BE0DAB2FB681A70FB68181CBD4604B080BDAD
S1135BF0D8F0FF1F94F1FF1F9CF1FF1F00700440B9
S1135C003C1000000070034000E100E0FFFF3FFF94
S1135C1080B582B000AF7860074A074984235B00EF
S1135C20CB580121194384235B00D1500023181C55
S1135C30BD4602B080BDC0460070034080B582B04E
S1135C4000AF786039603A68174B134001D0802365
S1135C5025E03A6880235B00134013D0134A86235F
S1135C605B000121D150114A80235B00D3580F4AB5
S1135C700E4984235B00CB580221194384235B0023
S1135C80D1500BE0094A094984235B00CB58022117
S1135C90181C8843011C84235B00D1500023181C6A
S1135CA0BD4602B080BDC046FFFEFFFF007003404A
S1135CB080B582B000AF0A4B1B687B60094A86231B
S1135CC05B000121D150074A80235B00D3587B68D5
S1135CD05B68181C00F00AFABD4602B080BDC046DD
S1135CE09CF1FF1F0070034080B584B000AF786062
S1135CF0424BDB69002B6FD1414BFB60FB687A6838
S1135D005A60FB6801221A703E4A3E493E4BCB580A
S1135D108021490419433C4BD1503C4B00221A606A
S1135D203A4B00225A60394B0022DA60374B00228A
S1135D305A61364B0022DA61344B00225A62334BEB
S1135D400022DA62314B00225A63304B304A9A60A7
S1135D502E4B2C22DA612D4B2D4A1A622B4B2C220E
S1135D605A622A4B2A4A9A62284B2C22DA60274B21
S1135D70274A1A61254B2C225A61244B244A9A61E2
S1135D80244B244AD168244A0A408021C9000A438A
S1135D90DA60204B1F4A11691F4A0A408021C9005A
S1135DA00A431A611B4B1B4A51681B4A0A40802153
S1135DB0C9000A435A60174B164A9168164A0A40AA
S1135DC08021C9000A439A60104B0B221A600B4BC6
S1135DD0FA68DA61FB680CE0084BDB69FB60FB687E
S1135DE07A685A60FB681B780133DAB2FB681A7070
S1135DF0FB68181CBD4604B080BDC046D8F0FF1F28
S1135E00A0F1FF1F007004403C100000008003401C
S1135E10FFFF000000B00440FFF8FFFE80B584B02F
S1135E2000AF786039600B4B9A683B1C0E331A80C4
S1135E303B1C0E333A1C0E32128801321A803B6826
S1135E403A1C0E3212881A800023181CBD4604B076
S1135E5080BDC0460080034080B582B000AF78604A
S1135E60FB1C19703B1C1A80FB1C1B78032B01D9EB
S1135E70822313E0FB1C1B780A4AD35C002B01D05D
S1135E8009230BE00849FB1C1B78084AD35C3A1C25
S1135E9012880133DB00CB189A600023181CBD461E
S1135EA002B080BDBC62000000800340B862000004
S1135EB080B584B000AF7860274B1B6B002B39D1C1
S1135EC0264BFB60FB687A689A60FB6801221A71B2
S1135ED0234A2349234BCB58802189041943214B5E
S1135EE0D150214B00221A601F4B00225A601E4BD6
S1135EF00022DA601C4B00225A611B4B1B4A9A6039
S1135F00194B2C22DA60184B194A1A61194B194A99
S1135F101168194A0A40C02189000A431A60FB68C3
S1135F2008221A60104B03221A600B4BFA681A639A
S1135F30FB680CE0084B1B6BFB60FB687A689A609B
S1135F40FB681B790133DAB2FB681A71FB68181C11
S1135F50BD4604B080BDC046D8F0FF1FA8F1FF1FA6
S1135F60007004403C10000000900340CCCC0000C2
S1135F70F4BD000000A00440FFF8FFFE80B584B02B
S1135F8000AF78607B68FB60074B074A1268982172
S1135F90101C8843011CFA6812680A431A60002323
S1135FA0181CBD4604B080BD0090034080B584B089
S1135FB000AF786039600B4B9A683B1C0E331A8033
S1135FC03B1C0E333A1C0E32128801321A803B6895
S1135FD03A1C0E3212881A800023181CBD4604B0E5
S1135FE080BDC0460090034080B582B000AF7860A9
S1135FF0FB1C19703B1C1A80FB1C1B78002B01D066
S113600082230DE00023002B01D0092308E0064978
S113601000233A1C12880133DB00CB189A6000235A
S1136020181CBD4602B080BD0090034080B584B00A
